:020000040800F2
:1000000000200020DD010008E5010008E9010008EA
:1000100000000000000000000000000000000000E0
:100020000000000000000000000000001D020008A9
:100030000000000000000000210200082502000866
:100040002D0200082D0200082D0200082D020008D4
:100050002D020008790D00082D0200082D0200086D
:100060002D0200082D0200082D0200082D020008B4
:100070002D0200082D0200082D020008490D00087D
:100080002D0200082D020008000000002D020008CB
:100090002D0200082D0200082D0200082D02000884
:1000A0002D0200082D0200082D0200082D02000874
:1000B0002D020008000000002D02000800000000D2
:1000C0005FF808F130B583B000F0C4FA314B324A22
:1000D0001360324A1360324B324A03E011681960F0
:1000E0000433043230498B42F8D32B4B1A682F4B20
:1000F0009A4204D1294B1A682D4B9A4200D0FEE750
:10010000244B2C4A13602C4A13602C4B02E0002233
:100110001A6004332A4A9342F9D3264B1B68002BFA
:1001200003D1254B1B68002B00D0FEE700F096FAA8
:1001300001A8694600F01CFA224B234DED1AAD10C0
:10014000002404E0A2001F4BD35898470134A54275
:10015000F8DC1E4B1E4DED1AAD10002404E0A20089
:100160001A4BD35898470134A542F8DC01980099FE
:1001700000F0CCFD051C174B174CE41AA41004E04A
:10018000013CA200134BD3589847002CF8DC281CE4
:1001900000F0C0F9BABADECA0000002088000020D2
:1001A000000000205C2A00088C00002078563412E1
:1001B00032547698900000205C01002090000020CE
:1001C0006001002058020008580200085802000888
:1001D00058020008580200085802000808B5FFF746
:1001E00071FFC04600BEFEE704207146084202D0FF
:1001F000EFF3098001E0EFF3088071460A4A1047E7
:1002000038B5051C0C1C044800F0C6F9281C211C3C
:1002100000F028FA00BEFEE79429000800BEFEE7C1
:1002200000BEFEE7704700000102000800BEFEE7C6
:100230005C2A0008000000208C0000205C2A0008D6
:10024000000000000000000090000020600100207D
:080250000000000000000000A6
:10025800002303804380E022D2008280C380038190
:1002680043818381C381072303827047F8B54F46D2
:100278004646C0B4051C0C1C644B984206D0644B1F
:10028800984203D06348EB2100F076F92388002BCD
:100298000FD08022D20093420BD0802212029342C8
:1002A80007D0C0221202934203D05A48EE2100F030
:1002B80063F9638882225200934205D0002B03D051
:1002C8005448EF2100F058F9A388C02292009342C5
:1002D80033D08022D20093422FD0A022D200934262
:1002E8002BD0C022D200934227D0E022D2009342E2
:1002F80023D08022120193421FD0902212019342F0
:100308001BD0A0221201934217D0B02212019342AF
:1003180013D0C022120193420FD0D022120193426F
:100328000BD0E0221201934207D0F022120193422F
:1003380003D03848F02100F01FF9E388002B05D0DE
:10034800022B03D03348F12100F016F92389012B41
:1003580003D93048F22100F00FF963898022920016
:10036800934205D0002B03D02A48F32100F004F96A
:10037800A389002B11D0082B0FD0102B0DD0182BD0
:100388000BD0202B09D0282B07D0302B05D0382BA9
:1003980003D02048F42100F0EFF8E389002B05D0C2
:1003A800802B03D01B48F52100F0E6F8238A002BA8
:1003B80003D11848F62100F0DFF82B88C1229201FA
:1003C8001A4091462288E389E78826896089A189AD
:1003D80013433B43334303430B434A4613432B80A6
:1003E800AA880D4B1340A2881343AB80238A2B8223
:1003F8002B8804229343628813432B80AA8B074BD4
:100408001340AB830CBC90469946F8BD00300140C0
:100418000038004008280008FFF0FFFFFFF7FFFF43
:1004280038B5041C0D1C0F4B984207D00E4B984250
:1004380004D00E48C821FF3100F09EF8012D04D9E0
:100448000A48E421490000F097F8002D04D02288DA
:1004580040231343238003E02388402293432380CF
:1004680038BDC04600300140003800400828000868
:1004780038B5041C0D1C064B984206D0054B984213
:1004880003D00548054900F077F8257338BDC04604
:10049800003001400038004008280008EB02000046
:1004A80038B5051C0C1C144B984206D0134B9842C7
:1004B80003D01348134900F05FF8802C15D0402C66
:1004C80013D0202C11D0102C0FD0022C0DD0012CC1
:1004D8000BD080235B009C4207D0042C05D0082C4D
:1004E80003D00748084900F047F82B89234201D078
:1004F800012000E0002038BD0030014000380040F5
:1005080008280008DA040000DB040000FEE7C04603
:1005180008B5034800F054F80120FFF7F7FFC0467C
:100528003828000808B50D4B1B68002B02D10C4A6F
:100538000A4B1A60094B1B680330032290431818B2
:10054800084A904206D901F02DFD0C2303600120D2
:10055800404202E0014A1060181C08BD94000020C7
:1005680060010020001C002001230360014B0B6088
:100578007047C0460400002008B5031C0A1C034845
:10058800191C00F005F8FFF7C3FFC0468C280008C7
:100598000FB400B583B004AB04CB019307488021A6
:1005A80001F038FD011E03DD044800F04BF8011C82
:1005B800081C03B008BC04B01847C0469C000020C3
:1005C80010B5041C01F0F4FC011C201C00F03AF8E2
:1005D8000248012100F036F810BDC046CC290008B9
:1005E800F0B54F464646C0B485B0041C8946435C06
:1005F800002B1DD10425281C211CABBE041C1AE0AD
:10060800351E102D00D91025002304E022786946F4
:10061800CA5401330134AB42F8D36F460022FA546E
:10062800042290464046391CABBE071C761B00E0EE
:100638000E1C002EE4D1484605B00CBC90469946E5
:10064800F0BDC04608B5FFF7CBFF08BD08B500F000
:10065800A1F808BD08B500F0CFF808BD38B5041CEE
:100668000D1C1548FFF794FF14482168FFF790FF09
:1006780013486168FFF78CFF1248A168FFF788FFED
:100688001148E168FFF784FF10482169FFF780FFF0
:100698000F486169FFF77CFF0E48A169FFF778FFF3
:1006A800E1690D48FFF774FF0C48FFF771FF0C482C
:1006B800291CFFF76DFF38BDE4280008F42800085E
:1006C80004290008142900082429000834290008EE
:1006D80044290008542900086429000874290008DE
:1006E8007C29000882B0002301930093264B1968E7
:1006F800802252020A431A60234B1A6880239B0205
:1007080013400093019B01330193009B002B04D1FC
:10071800019AA023DB019A42EED11B4B1B689A0376
:1007280002D50123009301E000230093009B012BD5
:1007380028D11122154B1A60134B5A685A605A680F
:100748005A605968124A0A405A6059688822520306
:100758000A435A601968802252040A431A600A4BF5
:100768001B689A01FBD5084B5A6803218A435A60D3
:10077800596802220A435A60034B5B680C221340F3
:10078800082BF9D102B07047001002400020024047
:10079800FF7FC0FF08B5124B196801221143196089
:1007A800586810490140596018680F49014019609C
:1007B80018680E490140196058680D490140596090
:1007C800D96A0F208143D962186B0A49014019631D
:1007D800596B9143596300229A60FFF783FF08BD64
:1007E800001002400CB8FF08FFFFF6FEFFFFFBFFFA
:1007F800FFFFC0FFACFEFFFF10B51E4B5B680C226D
:100808001340042B07D0082B09D0002B22D11A4AF9
:100818001A4B1A6021E0184A184B1A601DE0154B54
:100828005C68A4025A68240F0234C0235B021A428F
:1008380004D1134B5C43114B1C600EE00D4BDB6A7B
:100848000F21194001310C4800F0DAFA44430B4BF0
:100858001C6002E0084A094B1A60064B5B681B06DD
:100868001B0F084AD25CD2B2044B1968D1401960F8
:1008780010BDC0460010024000127A001C00002083
:1008880000093D000C000020204B9969802292004D
:100898000A439A615969802212030A435A611C4B20
:1008A80019680C2211431960D9689143D960194B12
:1008B800996801220A439A60164B1B68DA07FBD431
:1008C800144B9A6802218A439A60996A802212011D
:1008D8000A439A62D968802292010A43DA60D96889
:1008E8000D4A0A40DA60DA6820218A43DA60D9685A
:1008F800802252010A43DA60D96810220A43DA607A
:10090800596907220A435A617047C04600100240DD
:100918000008004800240140FFF3FFFF114BD9698C
:10092800802292050A43DA615969802292020A43B9
:100938005A619023DB051968C02292000A431A60A5
:10094800D968094A0A40DA60084B196801220A4343
:100958001A601A6804218A431A601A6802218A43B5
:100968001A60704700100240FFFCFFFF007400404F
:1009780010B50C4B996804220A439A60094B1B680E
:100988005A07FBD5074B196C074C21600748FFF73E
:10099800FFFD236806485843FF2100F031FA054B54
:1009A800186010BD002401401C010020A429000883
:1009B800881300002001002008B5054B1968054878
:1009C800FFF7E6FD044B1A68044B1A6108BDC046E0
:1009D80020010020B82900081C01002000740040F4
:1009E80030B587B0274A51698023DB020B43536136
:1009F800254B186A254901401962186880210901A8
:100A080001431960D86822490140D960186A214910
:100A1800014019621868802101431960D968C02013
:100A28008143D96018688021490001431960D8685A
:100A380019490140D960916980235B010B43936197
:100A480001AC201CFFF704FC144B238082235B00BD
:100A58006380E023DB00A3800023E38023818022DE
:100A6800920062813822A281E381072323820C4D00
:100A7800281C211CFFF7FAFB281C0121FFF7D0FCDA
:100A880007B030BD0010024000040048FFFF0FFF10
:100A9800FFF3FFFFFF0FFFFFFFFCFFFF00C0FFFF9B
:100AA8000030014010B5041C10220B4B1A850B486E
:100AB8008021FFF7F5FC0128F9D0E1B20748FFF7DC
:100AC800D7FC06488021FFF7EBFC0128F9D010225B
:100AD800014B9A6110BDC046000400480030014037
:100AE80070B5041C0C4B30221A705A709A70DA7068
:100AF80000250DE06E1C201C0A2100F0C5F93031DC
:100B0800054B5955201C0A2100F07AF9041C351CA4
:100B1800002CEFD170BDC04620000020F8B50709B1
:100B28000F250540381CFFF7BDFF80267642301C94
:100B38003843FFF7B7FF381CFFF7B4FF2C1C281CFD
:100B4800FFF7B0FF354368B2FFF7ACFF201CFFF793
:100B5800A9FFF8BDF0B5474680B4030998460F25AC
:100B6800054040241F1C2743FFB27FB2381CFFF703
:100B780099FF4026764240463043FFF793FF381CE2
:100B8800FFF790FF2C43E4B264B2201CFFF78AFF02
:100B9800354368B2FFF786FF201CFFF783FF04BCCC
:100BA8009046F0BD08B50220FFF77CFF7E2040424A
:100BB800FFF778FF0220FFF775FF2820FFF7AEFF49
:100BC8000E20FFF7ABFF0620FFF7A8FF0120FFF775
:100BD800A5FF08BD10B58020FFF7A0FF4620FFF74E
:100BE800B9FF3A20FFF7B6FF194B1868596800F0AB
:100BF80057F9FFF775FF032404E0164B185DFFF75C
:100C0800A9FF013C002CF8DA4820FFF7A3FF7A205F
:100C1800FFF7A0FFC020FFF781FF5220FFF79AFFE0
:100C28003A20FFF797FF0C4B1868FFF759FF03248A
:100C380004E0084B185DFFF78DFF013C002CF8DA43
:100C48006F20FFF787FF6820FFF784FF10BDC046BD
:100C5800400100202000002020010020074B596996
:100C6800802292020A435A619023DB0519680C22FC
:100C780091431960D9689143D960704700100240C8
:100C88000E4BD96901221143D9618023DB058C21E0
:100C980019800021198501214942D9629A82084A9E
:100CA800C321890050580002000A505080210902CF
:100CB8001160998901220A439A8170470010024005
:100CC80000E100E00B4B9A68F0218A439A600A4BD6
:100CD800996802221143996019680A431A60074B00
:100CE800C1229200985806490140995020221A6062
:100CF8007047C046000001400004014000E100E0E8
:100D0800FF00FFFF08B5FFF7A9FFFFF7B9FFFFF7DF
:100D1800D9FFFFF7B9FDFFF701FEFFF761FEFFF707
:100D280041FF064B996804220A439A60FFF720FEA8
:100D3800FFF742FEFFF74EFFF8E7C04600240140E8
:100D480008B58023DB051B8ADA070CD50648FFF7B0
:100D58001FFC8023DB051A8A01218A431A8219881D
:100D680001220A431A8008BDD029000800000000AB
:100D780038B51F4B5B699A0734D51E4A136801338F
:100D88001360012B08D18023DB0500225A621988E1
:100D980001220A431A8020E08023DB051A880121FA
:100DA8008A431A80586A00F027FF041C0D1C124B56
:100DB800186800F021FF021C0B1C201C291C00F0E5
:100DC8008FF8021C0B1C0949074800F089F80B4BE7
:100DD800186059600022074B1A60054B59690222B6
:100DE8000A435A6138BDC046000000000000F03FC9
:100DF80000040140240100201C00002040010020C4
:100E0800002934D00123002210B488422CD30124B5
:100E18002407A14204D2814202D209011B01F8E74A
:100E2800E400A14204D2814202D249005B00F8E703
:100E3800884201D3401A1A434C08A04202D3001B2F
:100E48005C0822438C08A04202D3001B9C08224362
:100E5800CC08A04202D3001BDC082243002803D0A0
:100E68001B0901D00909E3E7101C10BC70470028D2
:100E780001D00020C04307B4024802A140180290E4
:100E880003BDC046190000000029F0D003B5FFF7E4
:100E9800B9FF0EBC4243891A1847C0467047C0467E
:100EA80038B50E4B0C4A041C0D1C00F00DFF002831
:100EB80004D1201C291C00F06BFE38BD074B064AE4
:100EC800201C291C00F030FB00F062FE80231B066A
:100ED800C018F2E7C046C046000000000000E0412C
:100EE800F0B5564644465F464D46F0B41F1C0B030A
:100EF8001B0B98464B0087B0041C81465B0DC80F3E
:100F0800161C9A460090002B51D06A4B9A4531D056
:100F18008022414652030A43630FD2001A43664BAC
:100F280090460025E20091469A44002402953B032E
:100F38001B0B9B46FD0F7B00311C5B0D019560D0A0
:100F48005C4A934254D08021584649030143720FAA
:100F5800C9001143584A8B469B18F1000020009A9B
:100F680004436A4003920F2C00D9ADE0534EA4000D
:100F78003459A746404604436ED10021022508246F
:100F8800884689460295D2E7009C0298C34649469E
:100F98000194022864D0032800D1ABE2012800D0D4
:100FA80038E2019A002402400025A14660E0434649
:100FB80023434AD04046002800D1C0E100F08EFE0D
:100FC800031E272B00DDB3E128210D1A211C083B45
:100FD8004246E9409A400D1C1543221C9A40A846F7
:100FE8009146374B00251B1A9A46002402959EE726
:100FF8005A4616430320002EB1D1B34600210220E1
:10100800ADE75A4632431BD05B46002B00D18AE13C
:10101800584600F063FE272800DD7DE12822171AD4
:10102800011C321C08395B46FA408B40171C1F43D1
:10103800331C8B40BB46191C214B1B1A00208EE722
:101048000027BB460021012089E700200125042450
:101058008046814602956AE703250C24029566E7D7
:10106800019C0394039D01222A400024114DA146AE
:10107800002000212403260B0C0D2405114B3443BA
:101088002D0523402B435B005B08D207191C4846FB
:10109800114307B03CBC90469946A246AB46F0BD0A
:1010A8000022802424039146024DE1E70024002514
:1010B800A146DDE7FF07000001FCFFFFE429000867
:1010C8000DFCFFFFFFFF0F805546ED1A0495D8452C
:1010D80000D953E100D14EE1049C0025013C4E4665
:1010E80004944746A946584603020C0E1C430902BD
:1010F800250C23041B0C0091381C291C0193FFF7B5
:101108007FFE019983464143381C8A46291CFFF714
:10111800BBFE330C090419438A450CD95B460919EF
:10112800013B8C4200D947E18A4500D844E10222BC
:101138005242934409195346CB1A181C291C984645
:10114800FFF75EFE071C0198291C7843824640463B
:10115800FFF79AFE36040B04360C33439A4509D937
:101168001B197A1E9C4200D924E19A4500D821E136
:10117800023F1B195E4632041743380CBB46009EDB
:10118800009F51463F0C32045B1A5946BA46120C6E
:101198000F043F0C904651467A434F434146414322
:1011A80056467043CF19160CBE19B14202D9802792
:1011B8007F02C019310C12043604120C4018B618FC
:1011C800834200D2C4E000D1BEE0191A4846861B0B
:1011D800B145BF417F42CF1BA74200D113E1291C73
:1011E800381CFFF70DFE019902904143381C8946CF
:1011F800291CFFF749FE330C0904194389450CD90A
:10120800029B0919013B8C4200D9FFE0894500D8AF
:10121800FCE0029F0919023F02974F46CF1B381C7A
:10122800291C0597FFF7ECFD071C0198291C78433A
:1012380081460598FFF728FE36040904360C0E434C
:10124800B14509D936197B1EB44200D9E0E0B14551
:1012580000D8DDE0023F3619029D4946761A290476
:1012680039430B0457460A0C1B0C40464546584365
:1012780055437B437A43EB18070CDB199D4202D98F
:1012880080256D0252191D0C00041B04000C521914
:101298001B18964235D300D1FCE001231943049E64
:1012A800994FF519002D00DCA1E0480709D00F235C
:1012B8000B40042B05D00B1D8B42894149428B44BE
:1012C800191C5A46D20107D5904B5C46049E8027CC
:1012D8001C40FF00A346F5198D4B9D427ADD039C07
:1012E8000122224000248B4DA146C1E6802424031C
:1012F800474627424CD13C432403240B009A854D92
:10130800B6E63619481EB4425ED9011C9642C4D1CD
:10131800009E9E42C1D1C2E7031C283B311C994064
:101328008B46002188E6301C00F0D8FC203072E69D
:10133800283B211C994000228846914651E6201CF2
:1013480000F0CCFC20303BE60021B14500D33DE75E
:10135800009F5A46B944B945BF417F423F19FB181F
:10136800013A9C421ED2984200D97EE000D1B5E0F5
:10137800191A93462AE7894500D8ADE648464646F5
:1013880042467708D3074608C0071E438146AAE6A7
:101398005846204212D1044324032A1C240B8946B0
:1013A8005C4D65E6A342E3D1009F4F45DBD9211A86
:1013B80093460BE7171CDDE69B46BCE63C4324033B
:1013C800240B009A534D53E6B24259D800D18AE013
:1013D800011C62E75F46C9087B07039E0B437C023A
:1013E8006D0501229946240B6D0D324040E64A4BAB
:1013F800049FDB1B382B10DD039C012222400024B4
:101408000025A14634E60121494248E7029304E752
:101418001F1C21E7019C039441E71F2B40DC3F4838
:10142800049F0C1C3A1858469140DC4090402043D9
:101438000A1C511E8A41011C11435A46DA40131CEA
:10144800480709D00F220A40042A05D00A1D8A42FB
:10145800894149425B18111C1A0234D5039C0122A8
:10146800224000240125A14602E6009F02214942AC
:10147800B9448B44B945894149420919CB18A4E6B6
:10148800009D881E6900A942AD416D422C1936198C
:1014980000913AE7002B00D033E70024009437E7A7
:1014A8001F4A049C5D46121BD5402A1C202B1FD0C6
:1014B8001C4E5F46A3199F403B1C19434B1E994184
:1014C80011430023BCE75A07C9080A43039F914602
:1014D8005B0201221C0B3A400025C9E54E45C4D8E1
:1014E8009346002172E6009F9F42C9D3011C0FE773
:1014F8000023E2E7802424035F463C432403240BB3
:10150800019A8946034DB3E5FF030000FFFFFFFE84
:10151800FE070000FF07000002FCFFFF1E0400009A
:10152800E2FBFFFF3E040000F8B55F46564644461E
:101538004D46F0B40C034D00CF0F610A440F214310
:10154800C4001803DE0F8046B44646465800760AA3
:10155800530F3343D600D14A6D0DBA46400DB346FA
:10156800904200D1F5E062460126724094466745F4
:1015780000D1ABE02F1A002F00DC11E100283ED18A
:101588005846184300D0F1E0600700D197E00F23D8
:101598002340042B00D122E1221DA242A44164422F
:1015A800802309191B04012750460B400740141CCF
:1015B800002B00D179E0B94B01359D4200D10BE1F8
:1015C800B74BE40819404807490204430B0B0020B5
:1015D80000211B031A0B0B0D6D051B0513436A082D
:1015E800B04DFF071D4015436D006D08291C394398
:1015F800201C3CBC90469946A246AB46F8BDA7487D
:101608008542C1D0802000040343382F00DDFDE06F
:101618001F2F00DD31E12020C01B1A1C5E468240CE
:10162800FE40324394465A468240101C421E904166
:10163800FB40624602431F1CA21A9442A441644222
:10164800C91B091B141C0A029ED549024F0A002F08
:1016580000D1D6E0381C00F041FB021C083A1F2AD2
:1016680000DDC3E02821231C091A9740CB401F4303
:101678009440954200DDC0E0551B691C1F2900DD20
:10168800EAE01F22551B3B1C221CAB40CA40AC4061
:10169800651EAC411343CF401C43391C002573E73A
:1016A80080217E4D0027C90300247C4B4807E408AD
:1016B8000443C9089D4250D009030B0B87E78023D8
:1016C8001B04012752460B40174071E72A1A94461B
:1016D800002A00DCA1E0002854D07048854200D1DF
:1016E80052E78020000403436046382800DD0EE1FD
:1016F8001F2800DD57E162462020801A1E1C864004
:10170800B1465E46D6404A4632435E4686409046DB
:10171800301C421E9041424602436046C3401219A3
:10172800A242A441644259180919141C080200D4A1
:101738002AE75A4B01359D4200D131E1584B6008E8
:101748001940012323401C1C0443CB071C434908B0
:101758001AE71E4300D00AE705E7231C0B433BD0DA
:1017680080231B030B431B031B0B30E7013F002F98
:101778006DD15E46A21B9442A4416442C91A091B5A
:10178800141C60E75846184300D1FDE6012676424E
:10179800B4446046002800D0D0E05E463219BFE766
:1017A800002F00D080E0681C4005400D012800DCB7
:1017B800E8E05A46A21A9442BF41C81A7F42C71BA2
:1017C8003E0200D498E05846041BA3459241591A9A
:1017D80052428F1AE2463AE700230024F7E68023B4
:1017E8001B04012756460B403740E1E6271C2838E2
:1017F80087400024954200DC3EE72949AD1A39406C
:10180800C2E6201C00F06AFA203026E75A461A433E
:10181800531E9A41D2B200270EE7002A00D0DEE01C
:10182800681C4605760D012E00DC90E01B4DA84291
:1018380000D1F5E05E463219A242A441644259182B
:101848000919CC07520814434908051C9CE613489B
:10185800854200D0D9E697E62B1C1F3B3E1CDE4094
:10186800331C20296FD03F22551BAF403C43601EDC
:1018780084411C430021002586E6381C20381E1CA4
:10188800C640301C202F60D04022D71BBB405A4690
:101898001A43531E9A4102430027CDE6FF07000072
:1018A800FFFF7FFFFFFF0F80002D37D0B64DA84206
:1018B80000D18FE080252D047F422943382F00DD99
:1018C800A8E01F2F00DD24E12025ED1B0E1CAE40F3
:1018D800B046261CFE404246AC401643651EAC414D
:1018E8003443F9405A46141BA34592415B1A5242AD
:1018F800991A051CE246A6E6131C3B43141C002B50
:1019080000D0A4E60027002100250024CDE65A4691
:101918001A43531E9A41D2B2002300E70D1C2543F7
:1019280058D0FF43002F51D15A46141BA34592416A
:10193800591A5242891A051CE24684E692488542A1
:1019480000D0D1E620E6002790E700239FE7081C97
:101958002043002D00D0C2E0002800D1EFE0584617
:10196800184300D110E658460219A242A441644225
:1019780059180919141C0A0200D405E6834B0125DD
:10198800194001E6081C2043002D38D100286FD1EA
:101998005946194303D0191C5C46E246F4E5002772
:1019A8000021002481E6604620381A1CC2406646A1
:1019B800101C202E00D1AAE04022921B93405A46C8
:1019C8001A43531E9A4102430023A8E66E4DA842CB
:1019D80000D073E7191C5C46051CE246D4E5002DCF
:1019E80022D10D1C254376D0D543002D70D15C44FF
:1019F8005C459241591852428918051C96E6002800
:101A08004CD15946194300D14AE6191C5C46E246B6
:101A18005D4DB9E50C43611E8C41E4B2002161E7DC
:101A2800051C0021002440E6574DA84253D05542DA
:101A3800802216043143382D7BDC1F2D00DD8CE01D
:101A48002022561B0A1CB446B240261CEE403243E4
:101A5800904662469440661EB44142461443E940AB
:101A68005C445C459241CB1852429918051C5DE6CE
:101A78005846184300D187E55E46A71BBC429241F1
:101A8800C81A5242801A060260D55846041BA3455C
:101A98009241591A5242891AE24675E55846184346
:101AA80033D04807E40804438020C90800030142F2
:101AB80008D0DD08054205D15946CA085C07144319
:101AC800291CE246630FC9001943E4002E4D5BE56B
:101AD8002D4A9042AFD1191C5C46051C54E50028DC
:101AE80030D05846184310D080254807E408C90864
:101AF8002D0304432942E5D0D8082842E2D15D46A7
:101B0800EA085C071443011CDCE71F4D3CE5002391
:101B180055E73D1C203D0E1CEE40351C202F2ED0D5
:101B28004026F71BB9400C43611E8C412C43002111
:101B3800D8E60C43611E8C41E4B2002190E7191CE1
:101B48005C4621E5191C5C460F4D1DE5031C3B4313
:101B580000D124E7011C3C1C16E5202676427619A4
:101B68000A1CF2409046202D0BD04026751BA94038
:101B78000C43611E8C4145462C43002170E700212F
:101B8800D1E70021F4E7C046FF070000FFFF7FFF11
:101B980070B50B1C124C09030E0B5900021C490DA1
:101BA800DD0F0020A14211DD0E4881420FDC8020AC
:101BB800400306430C48401A1F280BDD0B4A521AF3
:101BC800D640321C5042002D00D1101C70BD084B6D
:101BD800E818FBE7074BC240C9188E403243F1E7CB
:101BE800FE0300001D04000033040000130400007D
:101BF800FFFFFF7FEDFBFFFF10B5041E28D000F0AC
:101C08006DF8154A121A0A2815DD0B38844024038A
:101C18005205240B520D0023002000212403181C18
:101C28000B0D240B1B0523430C4C12051C401443BD
:101C38006400610810BD031C1533211C99400B1C5E
:101C48000B21081AC44024035205240B520DE3E764
:101C5800002200240023DFE71E040000FFFF0F809E
:101C68008446101C62468C46191C634600E0C04638
:101C78001FB500F019F9002801D40021C8421FBD82
:101C880010B500F049F84042013010BD10B500F021
:101C98000BF9002801DB002010BD012010BDC04653
:101CA80010B500F001F9002801DD002010BD012069
:101CB80010BDC04610B500F079F8002801DC0020FE
:101CC80010BD012010BDC04610B500F06FF8002807
:101CD80001DA002010BD012010BDC0461C210123DF
:101CE8001B04984201D3000C10391B0A984201D3F7
:101CF800000A08391B09984201D30009043902A2D5
:101D0800105C40187047C04604030202010101013B
:101D18000000000000000000F0B55F4656464D4642
:101D28004446F0B40D1C041C8046E80F8146180395
:101D38000F03000B3F0B83B084461B4800974900F4
:101D48005E00DF0F490D9246760DBB4681420CD0EE
:101D58001548864210D00120B14215D003B03CBCD2
:101D680090469946A246AB46F0BD009F0120274306
:101D7800F4D10D488642EED1604602430120002A84
:101D8800ECD10120B142E9D1009B6345E6D1D045B1
:101D9800E4D1D94506D00029E0D11C43201C441EBB
:101DA800A041DBE70020D9E7FF070000F0B55F4658
:101DB80056464D464446F0B4CD0FDE0FAC461D03E3
:101DC8002D0BB146374E0F034C00AB465D008046E5
:101DD8003F0B640D92466D0DB44232D0314EB54280
:101DE80035D0002C0ED1384341424141081C002D0A
:101DF8000BD0002919D1CC452DD065466842012366
:101E0800184318E0002DF6D1281C59460A435342BE
:101E18005341002806D1002BEDD0634658420123D8
:101E2800184308E00020002B05D14A465042504193
:101E38004042012318433CBC90469946A246AB4613
:101E4800F0BD3E1C0643C9D002204042F3E75E467F
:101E58001643C6D0F8E7AC4207DC0BDA61464842C5
:101E68004841404201231843E5E766467042012392
:101E78001843E0E75F450AD80ED000205F45DAD264
:101E8800654668426841404201231843D3E76246E9
:101E9800504201231843CEE7D045F8D80020D0455A
:101EA800EED3C8E7FF070000F0B556464D46444656
:101EB8005F46F0B40D1C83B0041C0190E80F814606
:101EC80018030F03000B3F0B844635480097490061
:101ED8005E00DF0F490D9246760DB846814234D038
:101EE8002F48864236D0002918D0002E1FD1341C26
:101EF80067463A4353425341002C1FD00020002B21
:101F080005D142465042504140420123184303B094
:101F18003CBC90469946A246AB46F0BD00980443A7
:101F280060426041041C002EE2D00028E9D1C1457E
:101F380015D04F46784201231843E8E7002BF6D026
:101F48004B46584201231843E1E7009F02202743EC
:101F5800DDD1C5E7674602201743D8D1C3E7B142B0
:101F680004DD4A46504201231843D0E7B14207DB5B
:101F780000986045E4D80AD0009F00206745C6D283
:101F88004F4678427841404201231843BFE7019AFF
:101F98005245D5D8019A00205245F1D3B7E7C0463B
:101FA800FF070000014B18687047C04684000020F6
:101FB8000023C25C0133002AFBD1581E704730B59C
:101FC800051C9BB0141E04DA8B23036001204042D9
:101FD8001DE08222920068460091049100218281CE
:101FE8008C4200D0611E012252420291059169463D
:101FF800CA81281C1A1C1E9B00F07CF8421C01DABE
:102008008B232B60002C02D0009900230B701BB08F
:1020180030BD000073B5141C054A061C0D1C106861
:10202800311C00932A1C231CFFF7C9FF76BDC0464C
:1020380084000020F0B58D6885B0071C0C1C039245
:102048000193AB4245D390228B89D20013423DD0F5
:1020580062690326564309692068F20F401A9619E7
:102068000290021C0198013212187610964200D292
:10207800161C381C5A050FD5311C00F02BFB051E09
:1020880013D0029A216900F0BAFAA289184B1340BA
:1020980080221343A38111E0321C00F06FFB051E60
:1020A8000CD1381C216900F0CDFA0C233B60A389C0
:1020B800402213430120A381404217E0029B25617F
:1020C800ED1825606661019DF61AA6600198A84280
:1020D80000D2019D2A1C2068039900F099FAA26891
:1020E8000020531BA36023685D19256005B0F0BD6F
:1020F8007FFBFFFFF0B59FB0039005938B890E1C03
:10210800171C19060FD53269002A0CD1402100F09E
:10211800E1FA30603061002803D103990C230B6089
:10212800C9E04023736106AD00236B6120236B7601
:102138003023AB763C1C2378002B03D1E21B0292A0
:1021480011D003E0252BF9D00134F4E70398311CB2
:102158003A1C029BFFF76EFF013000D1A6E06969C7
:10216800029A8B186B612378002B00D19EE0012224
:1021780052426A606A4600235B3201342B60EB608E
:10218800AB601370AB654E4F2178381C052200F008
:102198002BFA002807D0C71B2B680120B84018432A
:1021A80028600134EFE72B68D90603D56A46202159
:1021B8005B3211701A0703D56A462B215B32117006
:1021C80022782A2A01D0099B0EE0059A111D12686F
:1021D8000591002A01DB099204E05242EA600222DA
:1021E80013432B60013409E02278303A092A04D8D5
:1021F8000A214B4301349B18F6E7099323782E2BC9
:1022080018D163782A2B09D1059B02341A1D1B6843
:102218000592002B0DDA01235B420AE0013400230A
:102228002278303A092A04D80A214B4301349B18F2
:10223800F6E70793234F2178381C032200F0D4F9DE
:10224800002806D0C71B2B684020B84018432860D8
:10225800013421781C480622671C297600F0C4F94D
:10226800002812D0194B002B06D1059B07220733F3
:1022780093430833059314E005AB00930398291C96
:10228800321C134B00E000BF07E005AB0093039836
:10229800291C321C0E4B00F091F80490049901316E
:1022A80004D06A69049953186B6143E7B3895A06E5
:1022B80001D40B9801E0012040421FB0F0BDC04698
:1022C800262A00082C2A0008302A000800000000EE
:1022D8003D200008F7B5151C01930A698B68061C98
:1022E8000C1C934200DA131C221C2B604332127818
:1022F800002A01D001332B602068800602D52B68A4
:1023080002332B60216806270F401FD0231C43335C
:102318001B785A1E9341226892061FD5E118403156
:102328003020C870211C5A1C45310978A218403247
:102338000233D17012E0221C301C0199193201239A
:10234800089FB847013011D0009F01370097E06817
:102358002968009F431A9F42EDDBD7E7221C301CF7
:1023680001994332089FB847013002D10120404209
:1023780023E0206806212B68E26801400025042933
:1023880003D1D51AEB43DB171D40A26823699A4293
:1023980001DDD31AED1800270097009FAF420BDA32
:1023A800221C301C01991A320123089FB8470130BA
:1023B800DCD0009F0137EFE70020FEBDF0B50D1C13
:1023C8008BB0433506920590079304950B7E0C1C41
:1023D800109A6E2B00D1A7E011D8632B22D009D810
:1023E800002B00D1B0E0582B00D0C0E045310B7075
:1023F8007B4D4EE0642B1CD0692B1AD0B7E0732BB1
:1024080000D1A5E009D86F2B29D0702B00D0AEE001
:102418000E68202333430B6036E0752B1FD0782BD2
:1024280032D0A4E013680D1C191D423511601B68D9
:102438009FE0216813680E0603D5191D11601E68F8
:1024480005E04806F9D5191D116000215E5E644B50
:10245800002E3BDA049D2D2276422A7036E0216850
:1024680013680E0603D5191D11601E6804E048069E
:10247800F9D5191D1E881160594B227E0393082730
:102488006F2A1ED00A271CE0231C78214533554D9E
:10249800197011682368081D039510601E0601D580
:1024A8000E6802E05806FBD50E88D90702D520220F
:1024B800134323601027002E03D1226820239A4358
:1024C8002260231C002243331A7001E003930A2779
:1024D8006368A360002B03DB25680422954325600D
:1024E800002E02D1049D002B0ED0049D301C391CF7
:1024F800FEF7CAFC0398013D435C301C2B70391C65
:10250800FEF77EFC061EF1D1082F09D12168C90704
:1025180006D5626823699A4202DC013D30232B709C
:10252800049E731B23612AE008681368496905063D
:1025380004D5181D10601B68196005E04606F8D51B
:10254800181D10601B68198000232361049D16E084
:102558001368191D11601D68281CFFF729FD6368A1
:102568002061984200D923612069606004E0251C3D
:1025780042352B7001232361049E00233370079E8C
:1025880005980096211C09AA069BFFF7A3FE0130B7
:1025980002D10120404221E02A1C059806992369AE
:1025A800079DA8470130F4D02668B60705D4099BD3
:1025B800E068984212DA181C10E00025E0680999D2
:1025C800431A9D42F3DA221C059806991932012311
:1025D800079EB0470130DCD00135EFE70BB0F0BD06
:1025E800372A0008482A0008C9B28218904204D045
:1025F80003788B4202D00130F8E70020704710B50D
:102608000023934203D0CC5CC4540133F9E710BDD6
:1026180070B5814201D300230CE08C18A042FAD295
:102628008518131C013B0BD351426618F65C6918D8
:10263800CE54F7E7934203D0CC5CC4540133F9E796
:1026480070BD000030B5002940D004390B68002B5C
:1026580000DAC9181E4A1368141C002B02D14B60FB
:10266800116033E099420FD208680A189A4205D1DE
:1026780013685268C01808604A6000E04B60216027
:1026880024E08A4203D8131C5A68002AF9D11D682D
:102698005C198C420BD10968691858181960904266
:1026A80014D114685268091919605A600EE08C42F6
:1026B80002D90C23036009E008680C18944203D17E
:1026C80014685268001908604A60596030BDC046F5
:1026D8002C01002070B50323CD1C9D430835061C32
:1026E8000C2D01D20C2501E0002D3FDB8D423DD39E
:1026F800204B1C681A1C211C002913D00868431B96
:102708000DD40B2B02D90B60CC181EE08C4202D1E1
:10271800636813601AE0486860600C1C16E00C1CC3
:102728004968E9E7144C2068002803D1301C00F000
:102738004BF82060301C291C00F046F8431C15D0CB
:10274800C41C03239C4384420AD12560201C0B30FF
:102758000722231D9043C31A0BD05A42E25008E0C7
:10276800211A301C00F030F80130EED10C23336010
:10277800002070BD2C01002028010020F8B5061C9F
:102788000C1C151C002904D1111CFFF7A3FF041C05
:1027980018E0002A03D1FFF755FF2C1C12E000F0C7
:1027A80025F8A8420ED2301C291CFFF793FF071EFC
:1027B80007D0211C2A1CFFF722FF301C211CFFF721
:1027C80041FF3C1C201CF8BD38B5074C0023051CF4
:1027D800081C2360FDF7A6FE431C03D12368002BC9
:1027E80000D02B6038BDC0463001002004390B688A
:1027F800181F002B02DAC8581B18181F7047000052
:102808002E2E2F73797374656D2F7372632F737403
:102818006D333266302D7374647065726970682F19
:1028280073746D3332663078785F7370692E630025
:1028380061626F727428292C2065786974696E67E3
:102848002E2E2E002C2066756E6374696F6E3A20EA
:1028580000000000617373657274696F6E20222531
:102868007322206661696C65643A2066696C65202C
:10287800222573222C206C696E652025642573251A
:10288800730A00006173736572745F706172616DC1
:102898002829206661696C65643A2066696C652040
:1028A800222573222C206C696E652025640A00009D
:1028B8006D61696E28617267633D25642C206172C1
:1028C80067763D5B000000002C2000002225732263
:1028D800000000005D293B0A00000000537461639A
:1028E8006B206672616D653A0A0000002052302044
:1028F8003D2020253038580A0000000020523120A1
:102908003D2020253038580A00000000205232208F
:102918003D2020253038580A00000000205233207E
:102928003D2020253038580A00000000205231325E
:10293800203D20253038580A00000000204C522045
:102948003D2020253038580A000000002050432040
:102958003D2020253038580A0000000020505352EE
:10296800203D20253038580A000000004D69736367
:102978000A000000204C522F4558435F52455455D9
:10298800524E3D20253038580A0000005B486172DD
:10299800644661756C745D0A000000004144432080
:1029A800526573756C743A202575200A0000000082
:1029B8005265736973746F7220526573756C743ADB
:1029C800202575200A0000000A2A2A2A204F766549
:1029D80072666C6F7721202A2A2A0A00D010000814
:1029E8006C100008B41000089A0F0008B410000812
:1029F800A8100008B41000089A0F00086C1000080E
:102A08006C100008A81000089A0F0008900F000822
:102A1800900F0008900F0008F41200084300232DBF
:102A2800302B2000686C4C006566674546470030CF
:102A3800313233343536373839414243444546001C
:102A4800303132333435363738396162636465661C
:012A5800007D
:102A5C00785634129800002000000000000000009E
:102A6C00000000000102030406070809006CDC02E8
:102A7C00303030300000000000000000000000008A
:102A8C00000000000000000000000000000000003A
:102A9C0000000000242A00080000000000000000D4
:102AAC00000000000000000000000000000000001A
:102ABC00000000000000000000000000000000000A
:102ACC0000000000000000000000000000000000FA
:0C2ADC0000000000240000203254769816
:04000005080000C52A
:00000001FF
